:020000040800F2
:10000000680700206D0100087501000877010008ED
:10001000790100087B0100087D0100080000000054
:100020000000000000000000000000007F01000848
:10003000810100080000000083010008850100081C
:100040008701000887010008870100088701000870
:100050008701000887010008870100088701000860
:100060008701000887010008870100088701000850
:100070008701000887010008870100088701000840
:100080008701000887010008870100088701000830
:100090008701000887010008870100088701000820
:1000A0008701000887010008870100088701000810
:1000B000870100088701000887010008BD030008C8
:1000C00091030008870100088701000887010008E4
:1000D00087010008870100088701000887010008E0
:1000E00087010008870100088701000800F002F876
:1000F00000F02CF80AA090E8000C82448344AAF196
:100100000107DA4501D100F021F8AFF2090EBAE893
:100110000F0013F0010F18BFFB1A43F0010318473B
:10012000180C0000280C00000023002400250026E5
:10013000103A28BF78C1FBD8520728BF30C148BF4A
:100140000B6070471FB51FBD10B510BD00F031F832
:100150001146FFF7F7FF00F053FD00F04FF803B42E
:10016000FFF7F2FF03BC00F057F800000948804792
:1001700009480047FEE7FEE7FEE7FEE7FEE7FEE789
:10018000FEE7FEE7FEE7FEE704480549054A064BA1
:1001900070470000550B0008ED00000868010020C2
:1001A000680700206803002068030020704770473C
:1001B0007047754600F02CF8AE4605006946534678
:1001C00020F00700854618B020B5FFF7DDFFBDE839
:1001D00020404FF000064FF000074FF000084FF0AE
:1001E000000BAC46ACE8C009ACE8C009ACE8C009FB
:1001F000ACE8C00921F007018D46704710B50446F0
:10020000AFF300802046BDE81040FFF7A8BF000014
:10021000004870470000002001491820ABBEFEE7EF
:1002200026000200704700002DE9F041CA7802F074
:100230000F0CD30644BF8B784CEA030C09880B06DD
:1002400021D0056800234FF001084FF00F0E002663
:1002500008E000BF282A08BF47610136082E03F1D5
:1002600004030FD008FA06F70F42F6D00EFA03F493
:1002700025EA04040CFA03F5482A45EA0405E9D105
:100280000761EAE70560B1F5807F38BFBDE8F0811E
:10029000446800234FF4807E4FF00F08002607E0EB
:1002A000282A08BF47610136082E03F1040310D045
:1002B0000EFA06F707EA0105BD42F4D108FA03F584
:1002C000AC430CFA03F5482A44EA0504E8D1076177
:1002D000E9E74460BDE8F081B0B50422C4F2010250
:1002E000134602F1180E002848BF73461C6800F43C
:1002F0004013B3F5401F1FFA80FC06D1156824F0A7
:10030000706325F07064146015E0C3020AD46FF0C6
:100310000F0303EA50430CFA03F324EA030343F008
:10032000706308E0C0F30343032505FA03F324EAEE
:10033000030343F070636FF00F0404EA5044002994
:100340000CFA04F518BF2B43002848BF724613600F
:10035000B0BD0000416170470161704745F2144033
:10036000C4F200000188890702D501888188F9E775
:100370000188C90658BF7047018830F8141C41F045
:10038000010120F8141C0188C906F5D4704700004B
:10039000B0B545F2004440F20045C4F20004C0F29A
:1003A00000152046294600F0E7F8002808BFB0BD38
:1003B0002046294600F0D2F8B0BD0000B0B545F2A5
:1003C0000044C4F20004204600F0E4F83F21C0F2EB
:1003D0000201884215DD4021C0F2020188421CD092
:1003E0008221C0F2060188422AD08421C0F206018F
:1003F000884218BFB0BD40F26000C2F20000052183
:1004000023E0102831D0B0F1021F36D140F2600055
:10041000C2F2000001210170B0BD204600F02EF9AB
:1004200040F26002C2F2000211780129014625D192
:100430000220107040F26110C2F200000170B0BDE5
:1004400040F26000C2F20000042140F26115017028
:10045000C2F20005287800F0A9FB0146204600F012
:1004600011F9287801302870B0BDFFF777FF40F20E
:100470006000C2F2000000210170B0BD032040F214
:1004800061141070C2F20004207800F03FFC207864
:1004900001302070B0BD0000B0B586B04FF4001040
:1004A000012100F021F90820012100F029F90120A3
:1004B000012100F025F902200121FFF70DFF40F294
:1004C000003045F20044C1F60340C4F20004059038
:1004D00004F5384005A9FFF7A7FE1F20C0F2001061
:1004E00004AD0490284600F0CFF820208DF81000CD
:1004F000284600F0C9F80020CBF6FF7001904E208E
:10050000C0F2004002904FF48040ADF80C0048F279
:10051000A060C0F2010000902046012100F022F806
:100520006946204600F044F820464FF4007101224D
:1005300000F036F820464FF48061012200F030F8D8
:1005400020464FF48071012200F02AF840F2621038
:10055000C2F200000021017006B0B0BDC943818223
:10056000704700000288002918BF012122F0010213
:1005700011440180704700008288808A02EA11429B
:10058000084002F4E06218BF0120002A18BF0122CF
:1005900010407047818A008B60F31741084670470E
:1005A000002A82880CBF22EA010111438180704732
:1005B00070B586B0044680880D4620F03F0601A83D
:1005C00000F0CCF803994DF68360C4F21B30A1FB18
:1005D000000346EA9340A080208820F0010020809C
:1005E0002A6848F2A060C0F2010082424FEA9340BC
:1005F00008D85200B1FBF2F14FF6FC72114208BF6D
:10060000042125E0EB884BF6FF76B34204D102EBE0
:100610004202B1FBF2F105E019235A43B1FBF2F1BA
:1006200041F480414FF49672504344F6D352C1F2E4
:100630006202A0FB020208466FF31F30B0FA80F09E
:100640004009084348F20001CFF6FF7101439009C9
:1006500001302084A18320884FF6F53140F001005D
:10066000208020886A890840A98808431043208098
:10067000A88929890843208106B070BD008AC0B2CC
:10068000704700000182704710B5C17800294EF212
:100690000011CEF200011AD04EF60C52CEF200023A
:1006A0001268072323EA12220F23C2F1040C23FA53
:1006B00002F24378847890F800E003FA0CF32240C9
:1006C0001A43120101EB0E0383F8002300E080318E
:1006D0000078012300F01F0203FA02F2C0F3421077
:1006E00041F8202010BD0000002941F21C01C4F295
:1006F00002010A680CBF22EA00001043086070473C
:10070000002941F21801C4F202010A680CBF22EA72
:10071000000010430860704741F20000C4F202007C
:100720000168002241F0010101604168CFF6FF023B
:100730001140416001684FF6FF72CFF6F66211403A
:100740000160016821F480210160416821F4FE010B
:1007500041604FF41F0181607047000010B541F205
:100760000404C4F20204226802F00C02082A41F2D6
:100770000022C0F27A021CD12368D4F800C0C3F36F
:10078000834E5FEACC330EF1020C06D440F6001221
:10079000C0F23D020CFB02F20BE023689B0302D483
:1007A0000CFB02F205E040F60012C0F23D020CFB29
:1007B00002F20260226840F62853C2F30312C0F628
:1007C00000039A5C0168D14041602268C2F30222B2
:1007D0009A5C21FA02F282602268C2F3C2229A5C19
:1007E00040F62453D140C1602268C0F60003C2F332
:1007F00081329A5CB1FBF2F1016110BD0121B1EBD4
:10080000501F41F20001C4F2020104D04209022A41
:1008100014BF24312031096800F01F0021FA00F0D4
:1008200000F001007047000041F20400C4F2020031
:10083000006800F00C00704741F20401C4F20201AC
:100840000A6822F0F00210430860704741F200018C
:10085000C4F202010A68B0F5803F22F480320A60D7
:100860000A6822F480220A6005D0B0F5802F18BFF4
:1008700070474FF4A0200A681043086070470000DA
:1008800041F20401C4F202010A6822F4E06210435A
:100890000860704741F20401C4F202010A6822F4C0
:1008A000605242EAC0000860704700006021C4F254
:1008B000422108607047000041F20402C4F20202C3
:1008C0001368084323F47C1318431060704700003A
:1008D00041F20401C4F202010A6822F0030210434B
:1008E0000860704780B582B0002001903120FFF78A
:1008F00085FF019901F101010191019910B9B1F54B
:10090000A06FF3D13120FFF779FF002818BF012035
:1009100002B080BD0288002918BF012122F04002E8
:1009200042EA8111018070472DE9F04102880B886D
:1009300002F4415C4A88B1F804E043EA0C03CC8835
:100940001A430D8942EA0E024E8922438F892A43B7
:10095000B1F80E8032433A4342EA08020280828BA9
:1009600022F400628283098A0182BDE8F0810000DE
:1009700040F61000C4F20100102101607047000031
:1009800040F61400C4F2010010210160704700001D
:10099000B0B586B04FF4805001210124FFF7B0FEBE
:1009A000ADF80C40002040F600040290ADF81200B3
:1009B00040F20030C4F201044FF08271C0F2300006
:1009C00004F520550191CDF80E0001A92846FFF746
:1009D000ABFF28460121FFF79DFF04200121FFF70F
:1009E0008FFE04200121FFF78BFEE020C1F60300FB
:1009F0006D46009020462946FFF716FC1020C1F2F4
:100A00000300009020462946FFF70EFCFFF7B0FFD9
:100A100006B0B0BD43F20801C4F20101888000BFF6
:100A200008888007FCD500BF0888C007FCD000BF3D
:100A300008880006FCD488887047000080B500F064
:100A400029F880BD80B5FFF767FE4FF48030FFF7CF
:100A5000FDFEFFF747FF0020FFF7EEFE0020FFF747
:100A600019FF0020FFF70CFF00204FF4E011FFF703
:100A700023FF0120FFF71AFF3920FFF7BFFE0028F0
:100A8000FAD00220FFF724FFFFF7CEFE0828FBD1A3
:100A900080BD000082B041F204000021C4F20200D7
:100AA0000191009150F8041C41F4803140F8041C7D
:100AB00050F8041C01F400310091019901310191B9
:100AC000009919B90199B1F5A06FF1D150F8041C42
:100AD000890354BF0021012100910099012936D1D9
:100AE00042F20001C4F202010A6842F010020A60F8
:100AF0000A6822F003020A600A6842F002020A60F1
:100B00000168016001680160016841F48061016071
:100B1000016821F47C110160016841F4E811016071
:100B200050F8041C41F0807140F8041C50F8041C7B
:100B30008901FBD5016821F003010160016841F0E2
:100B400002010160016801F00C010829FAD102B02C
:100B50007047000080B541F20000C4F20200016855
:100B6000002241F0010101604168CFF6FF0211400F
:100B7000416001684FF6FF72CFF6F66211400160E6
:100B8000016821F480210160416821F4FE01416087
:100B90004FF41F018160FFF751FF4EF60850CEF26F
:100BA00000004FF00061016080BD000040F2610173
:100BB000C2F20001085C7047B0B582B0102001217C
:100BC000FFF79EFD42F2000040F60044C1F2030030
:100BD000C4F2010401AD019004F580602946FFF7DD
:100BE00023FB08200121FFF78BFD4FF20000C1F22B
:100BF0000300019020462946FFF716FB02B0B0BD66
:100C000082B041F2000844F24025C4F20108C0F26B
:100C10000F05FFF7D1FFFFF715FFFFF73DFCFFF7CB
:100C2000B7FEA8F580604FF48051FFF793FB40F2C8
:100C3000621640F26104C2F200060027C2F200040C
:100C400005E000BF40464FF40051FFF785FB3078C8
:100C500028B18DF803709DF803000F2811D9019772
:100C60000198A84244DA019801300190F8E700BFEA
:100C70009DF8030001308DF803009DF80300102853
:100C8000EDD2FFF77DFE9DF803009DF803100901EA
:100C900060F3420141F0100000F0D600FFF7BAFE09
:100CA0009DF8030014F81000FFF7B4FE9DF8030050
:100CB00040000130205CFFF7ADFE01970198092844
:100CC00006DC00BF01980130019001980A28F9DB89
:100CD000FFF74EFE3770019701983128C8DC00BF3E
:100CE00001980130019001983228F9DBC0E700BF7C
:100CF00040464FF40051FFF72DFB01970198A842A1
:100D0000A0DA019801300190F8E7000040F261029A
:100D1000C2F20002115440F26210C2F2000001213E
:100D2000017070470204060800000000010203047D
:100D30000102030406070809480D0008000000200E
:080D400068070000280100080B
:040000050800016D81
:00000001FF
